:100000000C9463000C948B000C948B000C948B006C
:100010000C948B000C948B000C948B000C948B0034
:100020000C948B000C948B000C948B000C948B0024
:100030000C948B000C948B000C948B000C948B0014
:100040000C949C020C948B000C948B000C948B00F1
:100050000C948B000C948B000C948B000C948B00F4
:100060000C948B000C948B000000000023002600F1
:10007000290000000000240027002A0000000000E2
:10008000250028002B0004040404040404040202D4
:100090000202020203030303030301020408102007
:1000A0004080010204081020010204081020000012
:1000B0000008000201000003040700000000000027
:1000C0000000BB04210511241FBECFEFD8E0DEBF26
:1000D000CDBF11E0A0E0B1E0E0E8FDE002C0059096
:1000E0000D92A830B107D9F721E0A8E0B1E001C036
:1000F0001D92A433B207E1F710E0C2E6D0E004C0DD
:100100002197FE010E947205C136D107C9F70E94EE
:10011000E6020C94B3060C940000CF92DF92EF92AB
:10012000FF920F931F938B0122273327C52ED62EC4
:10013000E72EFF244C2D50912201552371F0E52F1D
:10014000F0E0E09FB001E19F700DF09F700D112471
:10015000072F5C9D600111244D2DE0912801209115
:1001600023013091240150912501E51320C0BC01E9
:10017000660F771F860F971F820F931FE09125014F
:10018000E80FF92FF11D0083E0912601E80FF92F08
:10019000F11D408320912701820F911DFC011082E7
:1001A0001F910F91FF90EF90DF90CF900895880FEF
:1001B000991F880F991F820F931FE80FF92FF11DC8
:1001C0001082DCCFCF92DF92EF92FF920F931F93BA
:1001D000CF93DF9300911C0110911D0101151105B2
:1001E000A1F06B017C01D0E0C0E080911C019091F6
:1001F0001D01C817D90728F4B701A601CE010E9436
:100200008D0021960C171D0781F7DF91CF911F916B
:100210000F91FF90EF90DF90CF900895833081F0A1
:1002200028F4813099F08230A9F008958730A9F040
:100230008830C9F08430B1F4809180008F7D03C094
:10024000809180008F7780938000089584B58F77A8
:1002500084BD089584B58F7DFBCF8091B0008F77EA
:100260008093B00008958091B0008F7DF9CFCF9337
:10027000DF93282F30E0F901E255FF4F8491F90117
:10028000E656FF4FD491F901EA57FF4FC491CC23B2
:1002900091F081110E940E01EC2FF0E0EE0FFF1F94
:1002A000E458FF4FA591B4918FB7F894EC91D09595
:1002B000DE23DC938FBFDF91CF910895CF93DF933F
:1002C00090E0FC01E656FF4F24918A579F4FFC01B6
:1002D00084918823C9F090E0880F991FFC01EE58A3
:1002E000FF4FA591B491FC01E458FF4FC591D49103
:1002F00061110DC09FB7F8948C91209582238C9347
:100300008881282328839FBFDF91CF910895623091
:1003100051F49FB7F8943C91822F809583238C935E
:10032000E8812E2BEFCF8FB7F894EC912E2B2C93E6
:100330008FBFEACF3FB7F8948091160190911701D3
:10034000A0911801B091190126B5A89B05C02F3FB7
:1003500019F00196A11DB11D3FBFBA2FA92F982FEB
:100360008827BC01CD01620F711D811D911D42E0E6
:10037000660F771F881F991F4A95D1F708950F932D
:100380001F93CF93DF93CDB7DEB729970FB6F894BD
:10039000DEBF0FBECDBF8091230190912401892B38
:1003A00009F47CC00E949A010091290110912A0150
:1003B00020912B0130912C01601771078207930760
:1003C00040F46093290170932A0180932B0190934C
:1003D0002C010091290110912A0120912B013091CB
:1003E0002C01601B710B820B930B6C3271408105E9
:1003F0009105C0F2F89480911E0190911F019A839B
:100400008983E0912301F0912401DF01119680811D
:10041000898790911A01E0912D01F0912E01809130
:100420002F01992309F445C09081982B98879081DA
:10043000809589238F838F818C8388E08B83588577
:100440006F8149853B812C8189819A81508347FD49
:10045000252F3A952083262F39F0441F00C0000035
:100460006083000000C0F2CF38E04D91608300004F
:10047000019761F7F0932E01E0932D0149873B83AB
:100480002C839A83898378940E949A01609329012E
:1004900070932A0180932B0190932C0129960FB61B
:1004A000F894DEBF0FBECDBFDF91CF911F910F91AA
:1004B00008959081982B98879081809589238F83C8
:1004C0008F818E8388E08D8358856F8149853D813A
:1004D0002E8189819A81508347FD252F00C000C05D
:1004E000208300C000C000C000C000C060830000C6
:1004F000262F3A9541F0441F000000C000C000C004
:1005000000C000C0E8CF38E04D9100C0608300C05B
:10051000019709F7F0932E01E0932D0149873D8360
:100520002E83AFCFEAE1F1E04481558170E060E0D5
:10053000818592850C94AC061F920F920FB60F9294
:1005400011242F933F938F939F93AF93BF938091E9
:10055000120190911301A0911401B09115013091F5
:10056000110123E0230F2D3758F50196A11DB11D70
:10057000209311018093120190931301A093140111
:10058000B09315018091160190911701A091180167
:10059000B09119010196A11DB11D80931601909390
:1005A0001701A0931801B0931901BF91AF919F91CA
:1005B0008F913F912F910F900FBE0F901F90189524
:1005C00026E8230F0296A11DB11DD2CF789484B5E1
:1005D000826084BD84B5816084BD85B5826085BD3F
:1005E00085B5816085BD80916E00816080936E00CD
:1005F00010928100809181008260809381008091BF
:10060000810081608093810080918000816080936F
:1006100080008091B10084608093B1008091B0002F
:1006200081608093B00080917A00846080937A002A
:1006300080917A00826080937A0080917A00816054
:1006400080937A0080917A00806880937A0010927B
:10065000C10062E082E00E945E01809120019091E1
:10066000210197FD2DC061E00E945E018091200173
:100670000E94370181E080931B016091220162306A
:1006800041F120912301309124016150E1F070E0AB
:100690008FEF91E00E943105F90140911E015091C8
:1006A0001F01CF01821B930B8417950778F44081BB
:1006B000469FC001479F900D112490833196EDCF46
:1006C00010921B01DACF70E060E0E6CF82E0809309
:1006D00022010E94920280911C0190911D01892BA0
:1006E00041F040E050E06FEF70E090E080E00E9469
:1006F0008D000E94BF0198E8292E90E0392E28E84D
:10070000822E23E1922EA12CB12C00E010E0C4E057
:10071000D2E08FB7F894C0901201D0901301E0900E
:100720001401F09015018FBFE0EBF0E08491ECE94B
:10073000F0E06490F1017490772079F081110E94CB
:100740000E01E72DF0E0EE0FFF1FE859FF4FA591D6
:10075000B4918C91682281E009F480E090910101CC
:10076000891751F0C0920801D0920901E0920A0164
:10077000F0920B0180930101409108015091090111
:1007800060910A0170910B0126013701441A550A44
:10079000660A770AB301A2014E3151056105710560
:1007A00040F090910001891721F08093000191E0C1
:1007B000811190E080911001823009F49CC058F4BE
:1007C000882351F18130D9F10115110509F4A1CF28
:1007D0000E9400009CCF833009F4AAC08430A1F7A6
:1007E00060E070E08FEF90E00E94E2000E94BF01A5
:1007F00080910C0190910D01A0910E01B0910F011B
:10080000C81AD90AEA0AFB0A88EEC81683E0D80695
:10081000E104F104C8F2A8C09923B1F20E94920247
:100820000E94BF01C0920C01D0920D01E0920E0116
:10083000F0920F015524539450921001C5CF992383
:1008400059F0C0931001C0920C01D0920D01E092BA
:100850000E01F0920F01B8CF80910C0190910D0123
:10086000A0910E01B0910F0126013701481A590AD3
:100870006A0A7B0A88E8481683E158066104710415
:1008800098F060E070E08FEF90E00E94E2000E943C
:10089000BF01C0920C01D0920D01E0920E01F092C6
:1008A0000F01D093100190CF0E949202AAE5B0E010
:1008B000A30192010E946705A50194010E944505CC
:1008C0006901F12CE12CEC14FD0490F480911C01E1
:1008D00090911D01E816F90638F440E050E06FEF02
:1008E00070E0C7010E948D00EFEFEE1AFE0AEBCF19
:1008F0000E94BF0169CF40910C0150910D016091A0
:100900000E0170910F0126013701441A550A660A3B
:10091000770AB301A201483E53406105710508F012
:1009200090CF992309F450CFE3E0E09310018BCFEF
:1009300060E07FEF80E090E00E94E2000E94BF0153
:1009400080910C0190910D01A0910E01B0910F01C9
:10095000C81AD90AEA0AFB0AF8EECF16F3E0DF0656
:10096000E104F10408F430CF0E9492020E94BF011A
:100970001092100129CFCF93DF9310921B01109298
:1009800022011092290110922A0110922B0110923B
:100990002C0181E08093280180932501109226018B
:1009A00092E09093270180931A01CEE0D1E0D0939A
:1009B0001F01C0931E018EE091E00E948705909375
:1009C000240180932301009799F1FC019E0111926B
:1009D00021503040E1F78AE590E090931D0180932B
:1009E0001C0187E090E09093210180932001809189
:1009F0001B01882339F061E087E00E945E0187E0F7
:100A00000E943701EDE8F0E0E491F0E0EE0FFF1F07
:100A1000E458FF4F8591949190932E0180932D017E
:100A2000E1EAF0E0E491E0932F01DF91CF910895A6
:100A300010921F0110921E0110921D0110921C01B4
:100A4000D0CF80912301909124010E9423068091B0
:100A500020019091210197FD03C060E00C945E019C
:100A60000895AA1BBB1B51E107C0AA1FBB1FA617F5
:100A7000B70710F0A61BB70B881F991F5A95A9F747
:100A800080959095BC01CD010895A1E21A2EAA1B74
:100A9000BB1BFD010DC0AA1FBB1FEE1FFF1FA2172E
:100AA000B307E407F50720F0A21BB30BE40BF50B2B
:100AB000661F771F881F991F1A9469F760957095B4
:100AC000809590959B01AC01BD01CF0108950E94D6
:100AD0007805A59F900DB49F900DA49F800D911D4A
:100AE00011240895EE0FFF1F0590F491E02D099455
:100AF000A29FB001B39FC001A39F700D811D11245F
:100B0000911DB29F700D811D1124911D08950F93A9
:100B10001F93CF93DF938230910510F482E090E031
:100B2000E0913201F091330130E020E0B0E0A0E04C
:100B3000309799F42115310509F44AC0281B390B67
:100B400024303105D8F58A819B816115710589F1C1
:100B5000FB0193838283FE0111C040815181028198
:100B6000138148175907E0F04817590799F410976F
:100B700061F012960C93129713961C933296CF0144
:100B8000DF91CF911F910F9108950093320110933F
:100B90003301F4CF2115310551F04217530738F0D6
:100BA000A901DB019A01BD01DF01F801C1CFEF010D
:100BB000F9CF9093330180933201CDCFFE01E20F44
:100BC000F31F819391932250310939832883D7CF22
:100BD0002091300130913101232B41F42091040107
:100BE00030910501309331012093300120910201B1
:100BF000309103012115310541F42DB73EB74091E5
:100C0000060150910701241B350BE0913001F09152
:100C10003101E217F307A0F42E1B3F0B2817390709
:100C200078F0AC014E5F5F4F2417350748F04E0F48
:100C30005F1F5093310140933001819391939FCF77
:100C4000F0E0E0E09CCFCF93DF930097E9F0FC0168
:100C5000329713821282A0913201B0913301ED01DB
:100C600030E020E01097A1F420813181820F931FA2
:100C700020913001309131012817390709F061C006
:100C8000F0933101E0933001DF91CF910895EA01B3
:100C9000CE17DF07E8F54A815B819E0141155105BA
:100CA000B1F7E901FB83EA8349915991C40FD51F3C
:100CB000EC17FD0761F4808191810296840F951FE6
:100CC000E90199838883828193819B838A83F0E001
:100CD000E0E012968D919C9113970097B9F52D91B4
:100CE0003C911197CD010296820F931F2091300104
:100CF000309131012817390739F6309751F51092A4
:100D0000330110923201B0933101A0933001BCCF76
:100D1000D383C28340815181840F951FC817D9079F
:100D200061F44E5F5F4F88819981480F591F51834D
:100D300040838A819B81938382832115310509F049
:100D4000B0CFF0933301E09332019ECFFD01DC017F
:100D5000C0CF13821282D7CFDC0101C06D93415006
:100D60005040E0F7089510E0C2E6D0E004C0FE0174
:100D70000E9472052196C336D107C9F7F894FFCFB8
:080D80000101000034018000B4
:00000001FF
